:020000020000FC
:040000000C94350027
:040014000C94A800A0
:040034000C947500B3
:040048000C94A5016E
:10006800189508E00EBF0FEF0DBF03E000937E0068
:1000780000E00AB900EE0BB904E00093680000EE56
:1000880000936D0006E004B900E60AB903EA00939C
:1000980080000AE00093810001E000936F0000E017
:1000A800009389000093880000938B0000938A00D6
:1000B80007E610E01093C5000093C40008E9009318
:1000C800C10006E00093C20078940E94D4000E9408
:1000D800EA000E9400010E9413010E9437020C945A
:1000E8006900DF92DFB6DF92EF92FF920F931F93C2
:1000F8002F933F934F935F936F937F938F939F9328
:10010800AF93BF9350910001509389005091010122
:10011800509388004091020140938B004091030165
:1001280040938A00BF91AF919F918F917F916F917A
:100138005F914F913F912F911F910F91FF90EF90F9
:10014800DF90DFBEDF901895DF92DFB6DF92EF9287
:10015800FF920F931F932F933F934F935F936F9348
:100168007F938F939F93AF93BF934F990E945401AE
:100178004E990E9455014D990E945601BF91AF9129
:100188009F918F917F916F915F914F913F912F91A7
:100198001F910F91FF90EF90DF90DFBEDF901895D1
:1001A80000E400937C000FEE00937A0006E00093D1
:1001B8007B0000917A0006FDFCCF10917800009139
:1001C80079001093030100930201089521E420931C
:1001D8007C002FEE20937A0026E020937B0020916C
:1001E8007A0026FDFCCF2091780030917900209389
:1001F800010130930001089570910001609101019F
:1002080050E049E10E942B012FEF33E00E943D01AD
:1002180000930401F0920501E0920601089570919F
:1002280002016091030181E09EEF680F791F70E081
:1002380052E04BE40E942B0137E220E10E943D018D
:1002480000930901F0920A01E0920B010895649F5E
:100258008001749F100D569F100D0895759F202DD5
:10026800649F8001749F100D211D569F100D211D44
:100278000895EE24FF1841E1001F111F4A9529F443
:10028800E0920C01F0920D010895EE1CFF1CE21A99
:10029800F30A20F4E20EF31E8894EECF0894ECCF14
:1002A80008950895DD24C09004019091050180917E
:1002B80006010E94D1010E94E7010E94CC0146E597
:1002C8004093C6000E94CC0140E24093C6000E94C1
:1002D800CC014DE34093C6000E94CC0140E240931C
:1002E800C6000E9408020E94CC014CE24093C6005E
:1002F8000E941C020E94CC0140E24093C6000E946A
:10030800CC0146E54093C6000E94CC014FE64093DD
:10031800C6000E94CC014CE64093C6000E94CC0166
:1003280044E74093C6000E94CC014AE04093C600CF
:100338000E94CC014DE04093C60011271093130191
:100348000895DF92DFB6DF92EF92FF920F931F932B
:100358002F933F934F935F936F937F938F939F93C5
:10036800AF93BF930091C60000931301BF91AF9163
:100378009F918F917F916F915F914F913F912F91B5
:100388001F910F91FF90EF90DF90DFBEDF901895DF
:10039800A091C000A5FFFCCF0895C091110070E0A6
:1003A800672F7AE0572F03D0C882219708957727BF
:1003B800D61638F011F4C51620F0C51AD60A73956A
:1003C800F7CF79930895E0910E00F091010077E25C
:1003D800672F70E1572F0CD073E0672F78EE572FF7
:1003E80007D070E0672F74E6572F02D03297089530
:1003F8007727961738F011F4851720F0851B960B90
:100408007395F7CF719308950E94CC01B991D0E309
:10041800BD0FB093C6000E94CC010E94CC01B881E8
:10042800D0E3BD0FB093C6000E94CC012197089578
:10043800B191D0E3BD0FB093C6000E94CC010E94D9
:10044800CC01B191D0E3BD0FB093C6000E94CC019E
:100458000E94CC01B081D0E3BD0FB093C6000E94CA
:10046800CC01329708950091130116E5011302C0DB
:100478000E94560119E4011302C00E94550110E5BB
:0A048800011308950E945401089525
:00000001FF
