:020000020000FC
:040000000C94350027
:040014000C946101E6
:040034000C947900AF
:040048000C945E03B3
:10006800189508E00EBF0FEF0DBF03E000937E0068
:1000780000E00AB900EE0BB904E00093680000EE56
:1000880000936D000EE204B900E207B903EA009399
:1000980080000AE00093810001E000936F0000E017
:1000A800009389000093880000938B0000938A00D6
:1000B80007E610E01093C5000093C40008E9009318
:1000C800C10006E00093C2000E94AE0078940E942E
:1000D80090010E94A6010E94BC010E94DF010E94BB
:1000E800F5010E94E5030C946B00CF92CFB6CF9236
:1000F800DF92EF92FF920F931F932F933F934F93AB
:100108005F936F937F938F939F93AF93BF93509118
:10011800000150938900509101015093880040914B
:10012800020140938B004091030140938A00BF91E4
:10013800AF919F918F917F916F915F914F913F9177
:100148002F911F910F91FF90EF90DF90CF90CFBE2E
:10015800CF90189511E51CBD10E018B900001AE001
:100168001EBD0E94F703000010E01EBD0E94F703A9
:10017800000010E218B9000010E018B9000019E0FA
:100188001EBD0E94F70300001FE01EBD0E94F7037A
:10019800000010E218B9000010E018B900001BE0D8
:1001A8001EBD0E94F703000015E01EBD0E94F70364
:1001B800000010E218B9000010E018B900001CE0B7
:1001C8001EBD0E94F703000011E01EBD0E94F70348
:1001D800000010E218B9000010E018B900001FE094
:1001E8001EBD0E94F703000010E01EBD0E94F70329
:1001F800000010E218B9000010E018B9000011E082
:100208001EBD0E94F703000010E01EBD0E94F70308
:10021800000010E218B9000010E018B9000012E060
:100228001EBD0E94F70300001DE01EBD0E94F703DB
:10023800000010E218B9000010E018B9000013E03F
:100248001EBD0E94F70300001DE01EBD0E94F703BB
:10025800000010E218B9000010E018B9000014E01E
:100268001EBD0E94F70300001BE01EBD0E94F7039D
:10027800000010E218B9000010E018B9000015E0FD
:100288001EBD0E94F703000017E31EBD0E94F7037E
:10029800000010E218B9000010E018B9000016E0DC
:1002A8001EBD0E94F703000010E01EBD0E94F70368
:1002B800000010E218B900000895CF92CFB6CF928F
:1002C800DF92EF92FF920F931F932F933F934F93D9
:1002D8005F936F937F938F939F93AF93BF9309B16E
:1002E80007FF0E944D0406FF0E94240405FF0E9498
:1002F800FB03BF91AF919F918F917F916F915F9118
:100308004F913F912F911F910F91FF90EF90DF90A8
:10031800CF90CFBECF90189500E400937C000FEEED
:1003280000937A0006E000937B0000917A0006FDB6
:10033800FCCF10917800009179001093030100938D
:100348000201089521E420937C002FEE20937A0087
:1003580026E020937B0020917A0026FDFCCF209197
:1003680078003091790020930101309300010895BD
:10037800709100016091010150E048E10E9467021C
:100388001093120100931301709100016091010113
:1003980050E04BE20E94670224E630E00E947902B6
:1003A8003091120120911301310F201F3093040165
:1003B800209305010895709102016091030181E085
:1003C8009EEF680F791F70E052E04BE40E946702CD
:1003D80030E02AE00E947902109308010093090195
:1003E8000895109104010091050133E028EE0E9460
:1003F800790210931201009313011F2D0E2D30E086
:1004080024E60E947902009314011F2D0E2D30E07E
:100418002AE00E94790200931501E092160170917A
:1004280008016091090150911201409113010E9445
:10043800670210930601009307017091080160910B
:10044800090150E0409114010E94670230E02AE05F
:100458000E9479023091060120910701020F131FB3
:10046800109306010093070170910801609109013A
:1004780050E0409115010E94670230E024E60E9496
:1004880079023091060120910701020F131F109382
:10049800060100930701709108016091090150E07D
:1004A800409116010E94670233E028EE0E9479020B
:1004B8003091060120910701020F131F10930601C6
:1004C800009307010895649F8001749F100D569F43
:1004D800100D0895759F202D649F8001749F100D45
:1004E800211D569F100D211D0895EE24FF1841E18E
:1004F800001F111F4A9529F4E0920A01F0920B019E
:100508000895EE1CFF1CE21AF30A20F4E20EF31E13
:100518008894EECF0894ECCFD0900601C0900701E4
:100528000E948C030E94870340E54093C6000E9406
:10053800870340E24093C6000E9487034DE340933F
:10054800C6000E94870340E24093C6000E94B103A0
:100558000E94870340E24093C6000E94870347E554
:100568004093C6000E94870341E64093C6000E945C
:10057800870344E74093C6000E94870344E74093FB
:10058800C6000E9487034AE04093C6000E94870382
:100598004DE04093C6001127109311010895D090A3
:1005A8000801C09009010E948C030E94870349E456
:1005B8004093C6000E94870340E24093C6000E9411
:1005C80087034DE34093C6000E94870340E24093AF
:1005D800C6000E94B1030E94870340E24093C60010
:1005E8000E94870341E44093C6000E9487034DE6BA
:1005F8004093C6000E94870340E74093C6000E94CC
:10060800870345E64093C6000E94870342E740936C
:10061800C6000E9487034AE04093C6000E948703F1
:100628004DE04093C6001127109311010895D09012
:100638000401C09005010E948C030E94870346E5CF
:100648004093C6000E94870340E24093C6000E9480
:1006580087034DE34093C6000E94870340E240931E
:10066800C6000E94B1030E94870340E24093C6007F
:100678000E94870346E54093C6000E9487034FE621
:100688004093C6000E9487034CE64093C6000E9430
:10069800870344E74093C6000E9487034AE04093DB
:1006A800C6000E9487034DE04093C60011271093AF
:1006B80011010895CF92CFB6CF92DF92EF92FF92B9
:1006C8000F931F932F933F934F935F936F937F9352
:1006D8008F939F93AF93BF930091C600009311012E
:1006E800BF91AF919F918F917F916F915F914F9142
:1006F8003F912F911F910F91FF90EF90DF90CF9036
:10070800CFBECF901895A091C000A5FFFCCF08954B
:10071800ECE0F1E077E2672F70E1572F12D073E039
:10072800672F78EE572F0DD070E0672F74E6572F9C
:1007380008D070E0672F7AE0572F03D0C082349733
:1007480008957727D61638F011F4C51620F0C51A83
:10075800D60A7395F7CF719308950E948703B191D4
:10076800D0E3BD0FB093C6000E9487030E948703A1
:10077800B191D0E3BD0FB093C6000E9487030E94D9
:1007880087034CE24093C6000E948703B191D0E3EF
:10079800BD0FB093C6000E9487030E948703B191E2
:1007A800D0E3BD0FB093C6000E9487030E94870361
:1007B800B081D0E3BD0FB093C6000E948703349781
:1007C80008950091110116E5011302C00E941B0350
:1007D80019E4011302C00E94D30210E50113089521
:1007E8000E9490020895ADB5A7FFFDCF089510E0CF
:1007F80018B9000016E01EBD0E94F70300001EE3B2
:100808001EBD0E94F703000010E218B9000010E0B6
:1008180018B9000015E01EBD0E94F703000019E09A
:100828001EBD0E94F703000010E218B90000D09026
:100838000401C09005010E948C030E94760408956B
:1008480010E018B9000016E01EBD0E94F703000072
:1008580010E31EBD0E94F703000010E218B9000063
:1008680010E018B9000015E01EBD0E94F703000053
:1008780019E01EBD0E94F703000010E218B900003D
:10088800D0900801C09009010E948C030E94760450
:10089800089510E018B9000016E01EBD0E94F70385
:1008A800000017E61EBD0E94F703000010E218B909
:1008B800000010E018B9000015E01EBD0E94F70303
:1008C800000019E01EBD0E94F703000010E218B9ED
:1008D8000000D0900601C09007010E948C030E947E
:1008E8007604089510E018B9000014E01EBD0E94B7
:1008F800F703000011911EBD0E94F703000010E2EB
:1009080018B9000010E018B9000013E01EBD0E94DD
:10091800F7030000119100EF100F1EBD0E94F703AE
:10092800000010E218B9000010E018B9000012E049
:100938001EBD0E94F703000011911EBD0E94F7031F
:10094800000010E218B9000010E018B9000011E02A
:100958001EBD0E94F703000011911EBD0E94F703FF
:10096800000010E218B9000010813497112708958B
:00000001FF
