:020000020000FC
:040000000C94350027
:04000C000C949600BA
:040034000C946700C1
:10006800189508E00EBF0FEF0DBF03E000937E0068
:1000780000E004B908E305B901E00093680008E36B
:1000880000936B0006E004B900E60AB903EA00939E
:1000980080000AE00093810001E000936F0000E017
:1000A800009389000093880000938B0000938A00D6
:1000B80078940E94B7000E94CD000E94E3000E943D
:1000C80004010C945D00DF92DFB6DF92EF92FF929D
:1000D8000F931F932F933F934F935F936F937F9348
:1000E8008F939F9350910001509389005091010183
:1000F800509388004091020140938B004091030186
:1001080040938A009F918F917F916F915F914F915A
:100118003F912F911F910F91FF90EF90DF90DFBEDD
:10012800DF901895DF92DFB6DF92EF92FF920F9380
:100138001F932F933F934F935F936F937F938F9367
:100148009F931B994E9A9F918F917F916F915F9189
:100158004F913F912F911F910F91FF90EF90DF905A
:10016800DFBEDF90189500E400937C000FEE00934B
:100178007A0006E000937B0000917A0006FDFCCF30
:100188001091780000917900109303010093020107
:10019800089521E420937C002FEE20937A0026E036
:1001A80020937B0020917A0026FDFCCF20917800D7
:1001B80030917900209301013093000108957091E6
:1001C80000016091010150E045E00E940401109196
:1001D8000401009105012FEF33E00E940F01709197
:1001E80006016091070150E045E00E94040100917A
:1001F8000401109105010093060110930701089569
:10020800649F8001749F100D569F100D0093050187
:10021800109304010895EE24FF1841E1001F111FF7
:100228004A9529F400930701109306010895EE1CDE
:10023800FF1CE21AF30A20F4E20EF31E8894EECFB4
:040248000894ECCF5B
:00000001FF
