:020000020000FC
:040000000C94350027
:040014000C94AE009A
:040034000C947900AF
:040048000C94A4026E
:10006800189508E00EBF0FEF0DBF03E000937E0068
:1000780000E00AB900EE0BB904E00093680000EE56
:1000880000936D000FE204B903EA009380000AE0D0
:100098000093810001E000936F0000E00093890065
:1000A8000093880000938B0000938A0007E610E015
:1000B8001093C5000093C40008E90093C10006E04E
:1000C8000093C20011E51CBD01E005B90E943D0383
:1000D80078940E94D6000E94EC000E9402010E94BF
:1000E80025010E942B030C946D00DF92DFB6DF928E
:1000F800CF92EF92FF920F931F932F933F934F93BB
:100108005F936F937F938F939F93AF93BF93509118
:10011800000150938900509101015093880040914B
:10012800020140938B004091030140938A00BF91E4
:10013800AF919F918F917F916F915F914F913F9177
:100148002F911F910F91FF90EF90CF90DF90DFBE1E
:10015800DF901895DF92DFB6DF92CF92EF92FF9291
:100168000F931F932F933F934F935F936F937F93B7
:100178008F939F93AF93BF934D990E949103BF9123
:10018800AF919F918F917F916F915F914F913F9127
:100198002F911F910F91FF90EF90CF90DF90DFBECE
:1001A800DF90189500E400937C000FEE00937A002E
:1001B80006E000937B0000917A0006FDFCCF1091C9
:1001C80078000091790010930301009302010895CB
:1001D80021E420937C002FEE20937A0026E02093E0
:1001E8007B0020917A0026FDFCCF20917800309189
:1001F8007900209301013093000108957091000166
:100208006091010150E048E10E94AD011093120194
:1002180000931301709100016091010150E04BE2DD
:100228000E94AD0124E630E00E94BF013091120126
:1002380020911301310F201F3093040120930501F1
:100248000895709102016091030181E09EEF680FAB
:10025800791F70E052E04BE40E94AD0130E02AE0E3
:100268000E94BF011093080100930901089570913D
:10027800080160910901109104010091050133E022
:1002880028EE0E94BF0110931201009313011F2D45
:100298000E2D30E024E60E94BF01009314011F2DAB
:1002A8000E2D30E02AE00E94BF0100931501E09274
:1002B800160150911201409113010E94AD01109353
:1002C800060100930701709108016091090150E04F
:1002D800409114010E94AD0130E02AE00E94BF0164
:1002E8003091060120910701130F021F1093060198
:1002F80000930701709108016091090150E0409155
:1003080015010E94AD0130E024E60E94BF01309142
:10031800060120910701130F021F10930601009395
:100328000701709108016091090150E040911601A0
:100338000E94AD0133E028EE0E94BF013091060112
:1003480020910701130F021F109306010093070164
:100358000895649F8001749F100D569F100D089595
:10036800759F202D649F8001749F100D211D569F3D
:10037800100D211D0895EE24FF1841E1001F111FE3
:100388004A9529F4E0920A01F0920B010895EE1CB7
:10039800FF1CE21AF30A20F4E20EF31E8894EECF53
:1003A8000894ECCFD0900601C09007010E94D202B9
:1003B8000E94CD0240E54093C6000E94CD0240E273
:1003C8004093C6000E94CD024DE34093C6000E94B0
:1003D800CD0240E24093C6000E94F7020E94CD027F
:1003E80040E24093C6000E94CD0247E54093C60014
:1003F8000E94CD0241E64093C6000E94CD0244E728
:100408004093C6000E94CD0244E74093C6000E9474
:10041800CD024AE04093C6000E94CD024DE04093D1
:10042800C6001127109311010895D0900801C090BB
:1004380009010E94D2020E94CD0249E44093C600FD
:100448000E94CD0240E24093C6000E94CD024DE3D7
:100458004093C6000E94CD0240E24093C6000E942D
:10046800F7020E94CD0240E24093C6000E94CD02EE
:1004780041E44093C6000E94CD024DE64093C60079
:100488000E94CD0240E74093C6000E94CD0245E697
:100498004093C6000E94CD0242E74093C6000E94E6
:1004A800CD024AE04093C6000E94CD024DE0409341
:1004B800C6001127109311010895D0900401C0902F
:1004C80005010E94D2020E94CD0246E54093C60073
:1004D8000E94CD0240E24093C6000E94CD024DE347
:1004E8004093C6000E94CD0240E24093C6000E949D
:1004F800F7020E94CD0240E24093C6000E94CD025E
:1005080046E54093C6000E94CD024FE64093C600E0
:100518000E94CD024CE64093C6000E94CD0244E7FB
:100528004093C6000E94CD024AE04093C6000E9454
:10053800CD024DE04093C600112710931101089594
:10054800DF92DFB6DF92CF92EF92FF920F931F9365
:100558002F933F934F935F936F937F938F939F93C3
:10056800AF93BF930091C60000931101BF91AF9163
:100578009F918F917F916F915F914F913F912F91B3
:100588001F910F91FF90EF90CF90DF90DFBEDF902B
:100598001895A091C000A5FFFCCF0895ECE0F1E00C
:1005A80077E2672F70E1572F12D073E0672F78EE4C
:1005B800572F0DD070E0672F74E6572F08D070E0E2
:1005C800672F7AE0572F03D0C08234970895772792
:1005D800D61638F011F4C51620F0C51AD60A739548
:1005E800F7CF719308950E94CD02B191D0E3BD0F6A
:1005F800B093C6000E94CD020E94CD02B191D0E313
:10060800BD0FB093C6000E94CD020E94CD024CE2FD
:100618004093C6000E94CD02B191D0E3BD0FB093C4
:10062800C6000E94CD020E94CD02B191D0E3BD0F59
:10063800B093C6000E94CD020E94CD02B081D0E3E3
:10064800BD0FB093C6000E94CD0234970895009163
:10065800110116E5011302C00E94610219E4011399
:1006680002C00E94190210E5011308950E94D601E4
:10067800089510E015B900001AE01EBD0E948D0310
:10068800000010E01EBD0E948D03000011E015B9A6
:10069800000010E015B9000019E01EBD0E948D038E
:1006A80000001FE01EBD0E948D03000011E015B977
:1006B800000010E015B91BE01EBD0E948D0300006C
:1006C80015E01EBD0E948D03000011E015B9000061
:1006D80010E015B91CE01EBD0E948D03000011E05A
:1006E8001EBD0E948D03000011E015B9000010E046
:1006F80015B91FE01EBD0E948D030000000010E028
:100708001EBD0E948D030000000011E015B9000015
:100718000895ADB5A7FFFDCF089510E015B9000005
:1007280016E01EBD0E948D03000010E015B9000000
:100738001EE31EBD0E948D03000010E015B90000E5
:1007480015E01EBD0E948D03000010E015B90000E1
:1007580019E01EBD0E948D0300000E94D2020E9473
:10076800B50310E015B9000014E01EBD0E948D030A
:10077800000011911EBD0E948D03000011E015B903
:10078800000010E015B9000013E01EBD0E948D03A3
:100798000000119100EF100F1EBD0E948D03000094
:1007A80011E015B9000010E015B9000012E01EBDF7
:1007B8000E948D03000011911EBD0E948D03000050
:1007C80011E015B9000010E015B9000011E01EBDD8
:1007D8000E948D03000011911EBD0E948D03000030
:0C07E80011E015B90000349711270895A6
:00000001FF
