:020000020000FC
:040000000C94350027
:040014000C94A200A6
:040034000C947300B5
:040048000C945D01B6
:10006800189508E00EBF0FEF0DBF03E000937E0068
:1000780000E00AB900EE0BB904E00093680000EE56
:1000880000936D0006E004B900E60AB903EA00939C
:1000980080000AE00093810001E000936F0000E017
:1000A800009389000093880000938B0000938A00D6
:1000B80007E610E01093C5000093C40008E9009318
:1000C800C10006E00093C20078940E94CA000E9412
:1000D800E0000E94F6000E9409010C946900DF927A
:1000E800DFB6DF92EF92FF920F931F932F933F9308
:1000F8004F935F936F937F938F939F9350910001DA
:100108005093890050910101509388004091020159
:1001180040938B004091030140938A009F918F91F7
:100128007F916F915F914F913F912F911F910F9107
:10013800FF90EF90DF90DFBEDF901895DF92DFB67B
:10014800DF92EF92FF920F931F932F933F934F935A
:100158005F936F937F938F939F934F990E94490169
:100168004E990E944A014D990E944B019F918F918F
:100178007F916F915F914F913F912F911F910F91B7
:10018800FF90EF90DF90DFBEDF90189500E40093BA
:100198007C000FEE00937A0006E000937B0000914C
:1001A8007A0006FDFCCF1091780000917900109339
:1001B800030100930201089521E420937C002FEEAF
:1001C80020937A0026E020937B0020917A0026FD78
:1001D800FCCF209178003091790020930101309371
:1001E80000010895709100016091010150E049E11A
:1001F8000E9420012FEF33E00E9432010093040196
:10020800F0920501E0920601089570910201609153
:10021800030181E09EEF680F791F70E052E04BE424
:100228000E94200137E220E10E9432010093090177
:10023800F0920A01E0920B01649F8001749F100DF7
:10024800569F100D0895759F202D649F8001749FFF
:10025800100D211D569F100D211D0895EE24FF1825
:1002680041E1001F111F4A9529F4E0920C01F09218
:100278000D010895EE1CFF1CE21AF30A20F4E20EA9
:10028800F31E8894EECF0894ECCF089508950E9449
:1002980063010E945E0146E54093C6000E945E012C
:1002A80040E24093C6000E945E014DE34093C600C1
:1002B80008951895A091C000A5FFFCCF089500915E
:0A02C80004011091050120910601C8
:00000001FF
