:020000020000FC
:040000000C94350027
:040014000C946501E2
:040034000C947D00AB
:040048000C941304FD
:10006800189508E00EBF0FEF0DBF03E000937E0068
:1000780000E00AB900EE0BB904E00093680000EE56
:1000880000936D000EE204B900E207B903EA009399
:1000980080000AE00093810001E000936F0000E017
:1000A800009389000093880000938B0000938A00D6
:1000B80007E610E01093C5000093C40008E9009318
:1000C800C10006E00093C2000E94B20078940E942A
:1000D80094010E94AA010E94C0010E94F9010E9495
:1000E80020020E9492020E94D3020E949A040C9459
:1000F8006B00CF92CFB6CF92DF92EF92FF920F9321
:100108001F932F933F934F935F936F937F938F9397
:100118009F93AF93BF9350911901509389005091C9
:100128001A01509388004091170140938B00409129
:10013800180140938A00BF91AF919F918F917F9151
:100148006F915F914F913F912F911F910F91FF9068
:10015800EF90DF90CF90CFBECF90189511E51CBDE2
:1001680010E018B900001AE01EBD0E94AC0400009F
:1001780010E01EBD0E94AC04000010E218B9000097
:1001880010E018B9000019E01EBD0E94AC04000080
:100198001FE01EBD0E94AC04000010E218B9000068
:1001A80010E018B900001BE01EBD0E94AC0400005E
:1001B80015E01EBD0E94AC04000010E218B9000052
:1001C80010E018B900001CE01EBD0E94AC0400003D
:1001D80011E01EBD0E94AC04000010E218B9000036
:1001E80010E018B900001FE01EBD0E94AC0400001A
:1001F80010E01EBD0E94AC04000010E218B9000017
:1002080010E018B9000011E01EBD0E94AC04000007
:1002180010E01EBD0E94AC04000010E218B90000F6
:1002280010E018B9000012E01EBD0E94AC040000E6
:100238001DE01EBD0E94AC04000010E218B90000C9
:1002480010E018B9000013E01EBD0E94AC040000C5
:100258001DE01EBD0E94AC04000010E218B90000A9
:1002680010E018B9000014E01EBD0E94AC040000A4
:100278001BE01EBD0E94AC04000010E218B900008B
:1002880010E018B9000015E01EBD0E94AC04000083
:1002980017E31EBD0E94AC04000010E218B900006C
:1002A80010E018B9000016E01EBD0E94AC04000062
:1002B80010E01EBD0E94AC04000010E218B9000056
:1002C8000895CF92CFB6CF92DF92EF92FF920F931D
:1002D8001F932F933F934F935F936F937F938F93C6
:1002E8009F93AF93BF9309B107FF0E94020506FFD2
:1002F8000E94D90405FF0E94B004BF91AF919F915D
:100308008F917F916F915F914F913F912F911F91A5
:100318000F91FF90EF90DF90CF90CFBECF901895C0
:1003280000E400937C000FEE00937A0006E000934F
:100338007B0000917A0006FDFCCF109178000091B7
:1003480079001093030100930201089521E420939A
:100358007C002FEE20937A0026E020937B002091EA
:100368007A0026FDFCCF2091780030917900209307
:10037800010130930001089570910001609101011D
:1003880050E043E10E941C031093120100931301F3
:10039800709100016091010150E045E00E941C034A
:1003A8002AE030E00E942E033091120120911301BF
:1003B800200F311F30930401209305017091000133
:1003C8006091010150E043E00E941C0324E630E004
:1003D8000E942E033091040120910501200F311F46
:1003E80030930401209305010895709102016091F2
:1003F800030150E04DE10E941C0330E02AE00E9416
:100408002E03109312010093130170910201609161
:10041800030150E04DE10E941C0333E028EE0E94E6
:100428002E033091120120911301310F201F3093B8
:100438000801209309010895109104010091050114
:1004480033E028EE0E942E0310931201009313014B
:100458001F2D0E2D30E024E60E942E030093140178
:100468001F2D0E2D30E02AE00E942E030093150167
:10047800E0921601709108016091090150911201F2
:10048800409113010E941C03109306010093070179
:10049800709108016091090150E0409114010E9497
:1004A8001C0330E02AE00E942E03309106012091BF
:1004B8000701020F131F10930601009307017091A3
:1004C80008016091090150E0409115010E941C0348
:1004D80030E024E60E942E033091060120910701A6
:1004E800020F131F10930601009307017091080172
:1004F8006091090150E0409116010E941C0333E00D
:1005080028EE0E942E033091060120910701020F68
:10051800131F1093060100930701089570910801B5
:100528006091090150E042E00E941C0330E02AE09B
:100538000E942E031093170100931801709108016F
:100548006091090150E047E00E941C0330E024E676
:100558000E942E034091170130911801030F141FB8
:100568001093170100931801709108016091090117
:1005780050E042E00E941C0333E028EE0E942E0364
:100588004091170130911801030F141F40E03FEC10
:10059800030F141F10931701009318010895109169
:1005A80006010091070130E02AE00E942E03109313
:1005B800120100931301109112010091130130E010
:1005C8002AE00E942E031093190100931A017091DA
:1005D80012016091130150E043E00E941C0330E0D7
:1005E80024E60E942E034091190130911A01030F4D
:1005F800141F1093190100931A0170911201609150
:10060800130150E046E00E941C0333E028EE0E94EC
:100618002E034091190130911A01030F141F40E075
:100628003FEC030F141F1093190100931A0108954A
:10063800649F8001749F100D569F100D0895759F3B
:10064800202D649F8001749F100D211D569F100D51
:10065800211D0895EE24FF1841E1001F111F4A953E
:1006680029F4E0920A01F0920B010895EE1CFF1C98
:10067800E21AF30A20F4E20EF31E8894EECF0894EF
:10068800ECCFD0900601C09007010E9441040E945F
:100698003C0440E54093C6000E943C0440E240937D
:1006A800C6000E943C044DE34093C6000E943C04EF
:1006B80040E24093C6000E9466040E943C0440E267
:1006C8004093C6000E943C0447E54093C6000E9440
:1006D8003C0441E64093C6000E943C0444E7409332
:1006E800C6000E943C0444E74093C6000E943C04B4
:1006F8004AE04093C6000E943C044DE04093C60087
:100708001127109311010895D0900801C090090194
:100718000E9441040E943C0449E44093C6000E94A0
:100728003C0440E24093C6000E943C044DE34093E1
:10073800C6000E943C0440E24093C6000E94660442
:100748000E943C0440E24093C6000E943C0441E4FD
:100758004093C6000E943C044DE64093C6000E94A8
:100768003C0440E74093C6000E943C0445E64093A1
:10077800C6000E943C0442E74093C6000E943C0425
:100788004AE04093C6000E943C044DE04093C600F6
:100798001127109311010895D0900401C09005010C
:1007A8000E9441040E943C0446E54093C6000E9412
:1007B8003C0440E24093C6000E943C044DE3409351
:1007C800C6000E943C0440E24093C6000E946604B2
:1007D8000E943C0440E24093C6000E943C0446E567
:1007E8004093C6000E943C044FE64093C6000E9416
:1007F8003C044CE64093C6000E943C0444E7409306
:10080800C6000E943C044AE04093C6000E943C0493
:100818004DE04093C6001127109311010895CF921F
:10082800CFB6CF92DF92EF92FF920F931F932F9341
:100838003F934F935F936F937F938F939F93AF9360
:10084800BF930091C60000931101BF91AF919F9192
:100858008F917F916F915F914F913F912F911F9150
:100868000F91FF90EF90DF90CF90CFBECF9018956B
:10087800A091C000A5FFFCCF0895ECE0F1E077E27D
:10088800672F70E1572F12D073E0672F78EE572F3C
:100898000DD070E0672F74E6572F08D070E0672FEF
:1008A8007AE0572F03D0C082349708957727D61659
:1008B80038F011F4C51620F0C51AD60A7395F7CF8B
:1008C800719308950E943C04B191D0E3BD0FB09399
:1008D800C6000E943C040E943C04B191D0E3BD0FC5
:1008E800B093C6000E943C040E943C044CE2409332
:1008F800C6000E943C04B191D0E3BD0FB093C6007E
:100908000E943C040E943C04B191D0E3BD0FB09317
:10091800C6000E943C040E943C04B081D0E3BD0F95
:10092800B093C6000E943C043497089500911101C9
:1009380016E5011302C00E94D00319E4011302C096
:100948000E94880310E5011308950E944503089545
:10095800ADB5A7FFFDCF089510E018B9000016E067
:100968001EBD0E94AC0400001EE31EBD0E94AC0424
:10097800000010E218B9000010E018B9000015E0F6
:100988001EBD0E94AC04000019E01EBD0E94AC040C
:10099800000010E218B90000D0900401C0900501D1
:1009A8000E9441040E942B05089510E018B9000028
:1009B80016E01EBD0E94AC04000010E31EBD0E949C
:1009C800AC04000010E218B9000010E018B90000EB
:1009D80015E01EBD0E94AC04000019E01EBD0E9477
:1009E800AC04000010E218B90000D0900801C090D3
:1009F80009010E9441040E942B05089510E018B9CE
:100A0800000016E01EBD0E94AC04000017E61EBDE3
:100A18000E94AC04000010E218B9000010E018B9F8
:100A2800000015E01EBD0E94AC04000019E01EBDC8
:100A38000E94AC04000010E218B90000D090060132
:100A4800C09007010E9441040E942B05089510E000
:100A580018B9000014E01EBD0E94AC0400001191FA
:100A68001EBD0E94AC04000010E218B9000010E09E
:100A780018B9000013E01EBD0E94AC0400001191DB
:100A880000EF100F1EBD0E94AC04000010E218B960
:100A9800000010E018B9000012E01EBD0E94AC046E
:100AA800000011911EBD0E94AC04000010E218B9AC
:100AB800000010E018B9000011E01EBD0E94AC044F
:100AC800000011911EBD0E94AC04000010E218B98C
:0A0AD80000001081349711270895E3
:00000001FF
