:020000020000FC
:040000000C94350027
:040014000C94AA009E
:040034000C947500B3
:040048000C94FD0116
:10006800189508E00EBF0FEF0DBF03E000937E0068
:1000780000E00AB900EE0BB904E00093680000EE56
:1000880000936D0006E004B900E60AB903EA00939C
:1000980080000AE00093810001E000936F0000E017
:1000A800009389000093880000938B0000938A00D6
:1000B80007E610E01093C5000093C40008E9009318
:1000C800C10006E00093C20078940E94D8000E9404
:1000D800EE000E9404010E9427010E9484020C94F1
:1000E8006900DF92DFB6DF92CF92EF92FF920F9313
:1000F8001F932F933F934F935F936F937F938F93A8
:100108009F93AF93BF9350910001509389005091F2
:100118000101509388004091020140938B00409167
:10012800030140938A00BF91AF919F918F917F9176
:100138006F915F914F913F912F911F910F91FF9078
:10014800EF90CF90DF90DFBEDF901895DF92DFB69B
:10015800DF92CF92EF92FF920F931F932F933F93CB
:100168004F935F936F937F938F939F93AF93BF93B7
:100178004F990E9471014E990E9472014D990E94F7
:10018800BA01BF91AF919F918F917F916F915F91CC
:100198004F913F912F911F910F91FF90EF90CF902A
:1001A800DF90DFBEDF90189500E400937C000FEE2F
:1001B80000937A0006E000937B0000917A0006FD28
:1001C800FCCF1091780000917900109303010093FF
:1001D8000201089521E420937C002FEE20937A00F9
:1001E80026E020937B0020917A0026FDFCCF209109
:1001F800780030917900209301013093000108952F
:10020800709100016091010150E048E10E944801AD
:100218001093120100931301709100016091010184
:1002280050E04BE20E94480124E630E00E945A0167
:100238003091120120911301310F201F30930401D6
:10024800209305010895709102016091030181E0F6
:100258009EEF680F791F70E052E04BE40E9448015E
:1002680030E02AE00E945A01109308010093090126
:100278000895709104016091050150910801409121
:1002880009010E9448010895649F8001749F100D20
:10029800569F100D0895759F202D649F8001749FAF
:1002A800100D211D569F100D211D0895EE24FF18D5
:1002B80041E1001F111F4A9529F4E0920A01F092CA
:1002C8000B010895EE1CFF1CE21AF30A20F4E20E5B
:1002D800F31E8894EECF0894ECCF0895D0900801CF
:1002E800C09009010E942B020E94260249E4409313
:1002F800C6000E94260240E24093C6000E942602E1
:100308004DE34093C6000E94260240E24093C60097
:100318000E9450020E94260240E24093C6000E94BA
:10032800260241E44093C6000E9426024DE640930F
:10033800C6000E94260240E74093C6000E9426029B
:1003480045E64093C6000E94260242E74093C60055
:100358000E9426024AE04093C6000E9426024DE011
:100368004093C6001127109311010895D0900401FD
:10037800C09005010E942B020E94260246E5409388
:10038800C6000E94260240E24093C6000E94260250
:100398004DE34093C6000E94260240E24093C60007
:1003A8000E9450020E94260240E24093C6000E942A
:1003B800260246E54093C6000E9426024FE6409377
:1003C800C6000E9426024CE64093C6000E94260200
:1003D80044E74093C6000E9426024AE04093C600C4
:1003E8000E9426024DE04093C60011271093110188
:1003F8000895DF92DFB6DF92CF92EF92FF920F93CC
:100408001F932F933F934F935F936F937F938F9394
:100418009F93AF93BF930091C60000931101BF91C2
:10042800AF919F918F917F916F915F914F913F9184
:100438002F911F910F91FF90EF90CF90DF90DFBE2B
:10044800DF901895A091C000A5FFFCCF0895ECE0BF
:10045800F1E077E2672F70E1572F12D073E0672F32
:1004680078EE572F0DD070E0672F74E6572F08D01D
:1004780070E0672F7AE0572F03D0C0823497089531
:100488007727D61638F011F4C51620F0C51AD60A03
:100498007395F7CF719308950E942602B191D0E326
:1004A800BD0FB093C6000E9426020E942602B19199
:1004B800D0E3BD0FB093C6000E9426020E94260218
:1004C8004CE24093C6000E942602B191D0E3BD0FD2
:1004D800B093C6000E9426020E942602B191D0E382
:1004E800BD0FB093C6000E9426020E942602B0816A
:1004F800D0E3BD0FB093C6000E942602349708953A
:100508000091110116E5011302C00E94BA0119E415
:10051800011302C00E94720110E5011308950E94A0
:0405280071010895C0
:00000001FF
