:020000020000FC
:040000000C94350027
:040014000C94AA009E
:040034000C947500B3
:040048000C94A6026C
:10006800189508E00EBF0FEF0DBF03E000937E0068
:1000780000E00AB900EE0BB904E00093680000EE56
:1000880000936D0006E004B900E60AB903EA00939C
:1000980080000AE00093810001E000936F0000E017
:1000A800009389000093880000938B0000938A00D6
:1000B80007E610E01093C5000093C40008E9009318
:1000C800C10006E00093C20078940E94D8000E9404
:1000D800EE000E9404010E9427010E942D030C9447
:1000E8006900DF92DFB6DF92CF92EF92FF920F9313
:1000F8001F932F933F934F935F936F937F938F93A8
:100108009F93AF93BF9350910001509389005091F2
:100118000101509388004091020140938B00409167
:10012800030140938A00BF91AF919F918F917F9176
:100138006F915F914F913F912F911F910F91FF9078
:10014800EF90CF90DF90DFBEDF901895DF92DFB69B
:10015800DF92CF92EF92FF920F931F932F933F93CB
:100168004F935F936F937F938F939F93AF93BF93B7
:100178004F990E94D8014E990E941B024D990E94E6
:100188006302BF91AF919F918F917F916F915F9122
:100198004F913F912F911F910F91FF90EF90CF902A
:1001A800DF90DFBEDF90189500E400937C000FEE2F
:1001B80000937A0006E000937B0000917A0006FD28
:1001C800FCCF1091780000917900109303010093FF
:1001D8000201089521E420937C002FEE20937A00F9
:1001E80026E020937B0020917A0026FDFCCF209109
:1001F800780030917900209301013093000108952F
:10020800709100016091010150E048E10E94AF0146
:100218001093120100931301709100016091010184
:1002280050E04BE20E94AF0124E630E00E94C10199
:100238003091120120911301310F201F30930401D6
:10024800209305010895709102016091030181E0F6
:100258009EEF680F791F70E052E04BE40E94AF01F7
:1002680030E02AE00E94C1011093080100930901BF
:10027800089570910801609109011091040100919D
:10028800050133E028EE0E94C1011093120100938A
:1002980013011F2D0E2D30E024E60E94C1010093AA
:1002A80014011F2D0E2D30E02AE00E94C101009399
:1002B8001501E092160150911201409113010E941C
:1002C800AF01109306010093070170910801609136
:1002D800090150E0409114010E94AF0130E02AE08A
:1002E8000E94C1013091060120910701130F021FDE
:1002F80010930601009307017091080160910901AC
:1003080050E0409115010E94AF0130E024E60E94C0
:10031800C1013091060120910701130F021F1093AC
:10032800060100930701709108016091090150E0EE
:10033800409116010E94AF0133E028EE0E94C101EE
:100348003091060120910701130F021F1093060137
:10035800009307010895649F8001749F100D569FB4
:10036800100D0895759F202D649F8001749F100DB6
:10037800211D569F100D211D0895EE24FF1841E1FF
:10038800001F111F4A9529F4E0920A01F0920B010F
:100398000895EE1CFF1CE21AF30A20F4E20EF31E85
:1003A8008894EECF0894ECCFD0900601C090070156
:1003B8000E94D4020E94CF0240E54093C6000E94EA
:1003C800CF0240E24093C6000E94CF024DE3409323
:1003D800C6000E94CF0240E24093C6000E94F90284
:1003E8000E94CF0240E24093C6000E94CF0247E538
:1003F8004093C6000E94CF0241E64093C6000E9487
:10040800CF0244E74093C6000E94CF0244E74093DE
:10041800C6000E94CF024AE04093C6000E94CF0265
:100428004DE04093C6001127109311010895D09014
:100438000801C09009010E94D4020E94CF0249E439
:100448004093C6000E94CF0240E24093C6000E943B
:10045800CF024DE34093C6000E94CF0240E2409392
:10046800C6000E94F9020E94CF0240E24093C600F3
:100478000E94CF0241E44093C6000E94CF024DE69D
:100488004093C6000E94CF0240E74093C6000E94F6
:10049800CF0245E64093C6000E94CF0242E7409350
:1004A800C6000E94CF024AE04093C6000E94CF02D5
:1004B8004DE04093C6001127109311010895D09084
:1004C8000401C09005010E94D4020E94CF0246E5B3
:1004D8004093C6000E94CF0240E24093C6000E94AB
:1004E800CF024DE34093C6000E94CF0240E2409302
:1004F800C6000E94F9020E94CF0240E24093C60063
:100508000E94CF0246E54093C6000E94CF024FE604
:100518004093C6000E94CF024CE64093C6000E945A
:10052800CF0244E74093C6000E94CF024AE04093BE
:10053800C6000E94CF024DE04093C60011271093D9
:1005480011010895DF92DFB6DF92CF92EF92FF920A
:100558000F931F932F933F934F935F936F937F93C3
:100568008F939F93AF93BF930091C600009311019F
:10057800BF91AF919F918F917F916F915F914F91B3
:100588003F912F911F910F91FF90EF90CF90DF90A7
:10059800DFBEDF901895A091C000A5FFFCCF08959D
:1005A800ECE0F1E077E2672F70E1572F12D073E0AB
:1005B800672F78EE572F0DD070E0672F74E6572F0E
:1005C80008D070E0672F7AE0572F03D0C0823497A5
:1005D80008957727D61638F011F4C51620F0C51AF5
:1005E800D60A7395F7CF719308950E94CF02B191FF
:1005F800D0E3BD0FB093C6000E94CF020E94CF0285
:10060800B191D0E3BD0FB093C6000E94CF020E9403
:10061800CF024CE24093C6000E94CF02B191D0E3D2
:10062800BD0FB093C6000E94CF020E94CF02B191C5
:10063800D0E3BD0FB093C6000E94CF020E94CF0244
:10064800B081D0E3BD0FB093C6000E94CF023497AB
:1006580008950091110116E5011302C00E9463027A
:1006680019E4011302C00E941B0210E5011308954A
:060678000E94D801089564
:00000001FF
