:020000020000FC
:040000000C9401015A
:040040000C945C01BF
:040068000C943201C1
:0400AA000C9477013A
:10020000189508E00EBF0FEF0DBF0BEA00937A00C0
:1002100006E000937B0000E600937C0000E004B958
:1002200008E305B901E00093680008E300936B0060
:1002300006E004B900E60AB903EA009380000AE088
:100240000093810001E000936F00789416E227E1AB
:1002500039E73A95F1F72A95D9F71A95C1F70000D1
:10026000000008954F934FB74F9300917C00109179
:100270007C000770107F003011F0013061F00091B8
:1002800078002091790000930101209300011395DB
:1002900010937C000DC000917800209179000093AC
:1002A00003012093020130E0039F00937C0000C013
:1002B0004F914FBF4F9118954F934FB74F93009168
:1002C00000010095009389000091010100950093C1
:1002D000880000910201009500938B0000910301BA
:1002E000009500938A004F914FBF4F9118951D992B
:0402F0004E9A189575
:00000001FF
