:020000020000FC
:040000000C94350027
:040014000C946B01DC
:040034000C948300A5
:040048000C940F0401
:10006800189508E00EBF0FEF0DBF03E000937E0068
:1000780000E00AB900EE0BB904E00093680000EE56
:1000880000936D000EE204B900E207B903EA009399
:1000980080000AE00093810001E000936F0000E017
:1000A800009389000093880000938B0000938A00D6
:1000B80007E610E01093C5000093C40008E9009318
:1000C800C10006E00093C2000E94B80078940E9424
:1000D8009A010E9482050E94F5010E94AD010E94CA
:1000E80082050E94C0010E941C020E9476050E949F
:1000F8008E020E94CF020E9496040C946B00CF924D
:10010800CFB6CF92DF92EF92FF920F931F932F9368
:100118003F934F935F936F937F938F939F93AF9387
:10012800BF93509119015093890050911A0150932F
:1001380088004091170140938B004091180140932B
:100148008A00BF91AF919F918F917F916F915F913D
:100158004F913F912F911F910F91FF90EF90DF905A
:10016800CF90CFBECF90189511E51CBD10E018B9FF
:1001780000001AE01EBD0E94A804000010E01EBD89
:100188000E94A804000010E218B9000010E018B995
:10019800000019E01EBD0E94A80400001FE01EBD5B
:1001A8000E94A804000010E218B9000010E018B975
:1001B80000001BE01EBD0E94A804000015E01EBD43
:1001C8000E94A804000010E218B9000010E018B955
:1001D80000001CE01EBD0E94A804000011E01EBD26
:1001E8000E94A804000010E218B9000010E018B935
:1001F80000001FE01EBD0E94A804000010E01EBD04
:100208000E94A804000010E218B9000010E018B914
:10021800000011E01EBD0E94A804000010E01EBDF1
:100228000E94A804000010E218B9000010E018B9F4
:10023800000012E01EBD0E94A80400001DE01EBDC3
:100248000E94A804000010E218B9000010E018B9D4
:10025800000013E01EBD0E94A80400001DE01EBDA2
:100268000E94A804000010E218B9000010E018B9B4
:10027800000014E01EBD0E94A80400001BE01EBD83
:100288000E94A804000010E218B9000010E018B994
:10029800000015E01EBD0E94A804000017E31EBD63
:1002A8000E94A804000010E218B9000010E018B974
:1002B800000016E01EBD0E94A804000010E01EBD4C
:1002C8000E94A804000010E218B900000895CF9217
:1002D800CFB6CF92DF92EF92FF920F931F932F9397
:1002E8003F934F935F936F937F938F939F93AF93B6
:1002F800BF931FEF09B107FF1FE706FF1FEB05FFBD
:100308001FED10931B01BF91AF919F918F917F912A
:100318006F915F914F913F912F911F910F91FF9096
:10032800EF90DF90CF90CFBECF90189500E4009368
:100338007C0007EC00937A0000917A0006FDFCCF60
:100348001091780000917900109303010093020145
:10035800089521E420937C0027EC20937A002091D3
:100368007A0026FDFCCF2091780030917900209307
:10037800010130930001089570910001609101011D
:1003880050E043E10E9418031093120100931301F7
:10039800709100016091010150E045E00E9418034E
:1003A8003091120120911301200F311F3093040165
:1003B80020930501709100016091010150E043E034
:1003C8000E9418032AE030E00E942A0330910401B9
:1003D80020910501200F311F30930401209305015E
:1003E8000895709102016091030150E04DE10E946F
:1003F800180330E02AE00E942A03109312010093A8
:100408001301709102016091030150E04DE10E94D7
:10041800180333E028EE0E942A033091120120913C
:100428001301200F311F309308012093090108950B
:10043800109104010091050133E028EE0E942A037F
:1004480010931201009313011F2D0E2D30E024E6A6
:100458000E942A03009314011F2D0E2D30E02AE07C
:100468000E942A0300931501E09216017091080179
:100478006091090150911201409113010E941803E3
:10048800109306010093070170910801609109011A
:1004980050E0409114010E94180330E02AE00E94C5
:1004A8002A033091060120910701020F131F1093B0
:1004B800060100930701709108016091090150E05D
:1004C800409115010E94180330E024E60E942A0397
:1004D8003091060120910701020F131F10930601A6
:1004E80000930701709108016091090150E0409163
:1004F80016010E94180333E028EE0E942A03309167
:10050800060120910701020F131F109306010093A3
:1005180007010895709108016091090150E042E0D7
:100528000E94180330E02AE00E942A031093170162
:1005380000931801709108016091090150E047E0AB
:100548000E94180330E024E60E942A034091170114
:1005580030911801030F141F10931701009318010D
:10056800709108016091090150E042E00E9418036F
:1005780033E028EE0E942A034091170130911801B8
:10058800030F141F40E03FEC030F141F10931701D3
:10059800009318010895109106010091070130E0B9
:1005A8002AE00E942A03109312010093130110916C
:1005B80012010091130130E02AE00E942A031093EF
:1005C800190100931A01709112016091130150E012
:1005D80043E00E94180330E024E60E942A03409179
:1005E800190130911A01030F141F10931901009378
:1005F8001A01709112016091130150E046E00E94C7
:10060800180333E028EE0E942A0340911901309123
:100618001A01030F141F40E03FEC030F141F10933F
:10062800190100931A010895649F8001749F100DA9
:10063800569F100D0895759F202D649F8001749F0B
:10064800100D211D569F100D211D0895EE24FF1831
:1006580041E1001F111F4A9529F4E0920A01F09226
:100668000B010895EE1CFF1CE21AF30A20F4E20EB7
:10067800F31E8894EECF0894ECCFD0900601C0907A
:1006880007010E943D040E94380440E54093C600DB
:100698000E94380440E24093C6000E9438044DE3AB
:1006A8004093C6000E94380440E24093C6000E946E
:1006B80062040E94380440E24093C6000E94380455
:1006C80047E54093C6000E94380441E64093C600BF
:1006D8000E94380444E74093C6000E94380444E767
:1006E8004093C6000E9438044AE04093C6000E9426
:1006F80038044DE04093C600112710931101089566
:10070800D0900801C09009010E943D040E9438045D
:1007180049E44093C6000E94380440E24093C60072
:100728000E9438044DE34093C6000E94380440E21A
:100738004093C6000E9462040E94380440E240933D
:10074800C6000E94380441E44093C6000E94380461
:100758004DE64093C6000E94380440E74093C60027
:100768000E94380445E64093C6000E94380442E7D8
:100778004093C6000E9438044AE04093C6000E9495
:1007880038044DE04093C6001127109311010895D5
:10079800D0900401C09005010E943D040E943804D5
:1007A80046E54093C6000E94380440E24093C600E4
:1007B8000E9438044DE34093C6000E94380440E28A
:1007C8004093C6000E9462040E94380440E24093AD
:1007D800C6000E94380446E54093C6000E943804CB
:1007E8004FE64093C6000E9438044CE64093C6008A
:1007F8000E94380444E74093C6000E9438044AE047
:100808004093C6000E9438044DE04093C60011276B
:10081800109311010895CF92CFB6CF92DF92EF9245
:10082800FF920F931F932F933F934F935F936F9371
:100838007F938F939F93AF93BF930091C6000093CC
:100848001101BF91AF919F918F917F916F915F91AE
:100858004F913F912F911F910F91FF90EF90DF9053
:10086800CF90CFBECF901895A091C000A5FFFCCF28
:100878000895ECE0F1E077E2672F70E1572F12D08E
:1008880073E0672F78EE572F0DD070E0672F74E66E
:10089800572F08D070E0672F7AE0572F03D0C08217
:1008A800349708957727D61638F011F4C51620F036
:1008B800C51AD60A7395F7CF719308950E94380424
:1008C800B191D0E3BD0FB093C6000E9438040E94D6
:1008D8003804B191D0E3BD0FB093C6000E9438042C
:1008E8000E9438044CE24093C6000E943804B1913B
:1008F800D0E3BD0FB093C6000E9438040E943804AC
:10090800B191D0E3BD0FB093C6000E9438040E9495
:100918003804B081D0E3BD0FB093C6000E943804FC
:10092800349708950091110116E5011302C00E9441
:10093800CC0319E4011302C00E94840310E50113DB
:1009480008950E9441030895ADB5A7FFFDCF08950E
:1009580010E018B9000016E01EBD0E94A8040000AF
:100968001EE31EBD0E94A804000010E218B9000092
:1009780010E018B9000015E01EBD0E94A804000090
:1009880019E01EBD0E94A804000010E218B900007A
:10099800D0900401C09005010E943D040E943005DA
:1009A8001FEF10931B01089510E018B9000016E01E
:1009B8001EBD0E94A804000010E31EBD0E94A804EA
:1009C800000010E218B9000010E018B9000015E0A6
:1009D8001EBD0E94A804000019E01EBD0E94A804C4
:1009E800000010E218B90000D0900801C090090179
:1009F8000E943D040E9430051FEF10931B010895CB
:100A080010E018B9000016E01EBD0E94A8040000FE
:100A180017E61EBD0E94A804000010E218B90000E5
:100A280010E018B9000015E01EBD0E94A8040000DF
:100A380019E01EBD0E94A804000010E218B90000C9
:100A4800D0900601C09007010E943D040E94300525
:100A58001FEF10931B01089510E018B9000014E06F
:100A68001EBD0E94A804000011911EBD0E94A8048A
:100A7800000010E218B9000010E018B9000013E0F7
:100A88001EBD0E94A8040000119100EF100F1EBDAA
:100A98000E94A804000010E218B9000010E018B97C
:100AA800000012E01EBD0E94A804000011911EBDA6
:100AB8000E94A804000010E218B9000010E018B95C
:100AC800000011E01EBD0E94A804000011911EBD87
:100AD8000E94A804000010E218B9000010813497A1
:100AE8001127089500911B0107FF0E94040506FFC6
:100AF8000E94D80405FF0E94AC0408951DE028E276
:0C0B08002A95F1F71A95D9F7000008951E
:00000001FF
